:1000000009C019C017C016C015C04FC013C012C018
:1000100011C010C011271FBFCFE5D0E0DEBFCDBF9C
:1000200020E0A0E4B0E001C01D93A534B207E1F7E1
:100030007DD07DC0E5CF1F930F930FB70F9310E0D6
:100040004F935F93EF93FF9345B341131AC042E080
:1000500045BB19BD18BD4DB55EB5487F5EBD4DBDF4
:100060004DB55EB542605EBD4DBDE2E4F0E011937A
:100070001083E0E4F0E011931083E4E4F0E01083F7
:100080000BC045B3423041F4E2E4F0E01193108339
:1000900041E0E4E4F0E04083FF91EF915F914F9104
:1000A0000F910FBF0F911F9118951F930F930FB7CB
:1000B0000F9310E04F935F93EF93FF93029903C068
:1000C000E2E4F0E006C0029B0EC001990CC0E0E43F
:1000D000F0E04081EF5FFF4F5081E150F0404F5F13
:1000E0005F4F41935083FF91EF915F914F910F913B
:1000F0000FBF0F911F91189517BF48ED4CBF16BF4A
:10010000099A119A4FEF59E668E14150504060401A
:10011000E1F700C0000011984FEF59E668E1415047
:1001200050406040E1F700C00000EBCFE5DFF894FD
:02013000FFCFFF
:00000001FF
