S0140000415474696E793420636F64652E73726563C8
S113000009C018C017C016C015C0A2C013C012C0C2
S113001011C010C011271FBFCFE5D0E0DEBFCDBF98
S113002020E0A0E4B0E001C01D93A334B207E1F7DF
S1130030ADD0AFC0E5CFE1E4F0E0119310834FB74A
S11300404F774FBF17BF48ED4CBF48E046BF48E06D
S113005050E05EBD4DBD19BD18BD4BE156E057BD26
S113006046BD42E04BBD41E041B944E043B942B929
S1130070E0E4F0E04081453511F4109A06C04A3AB4
S113008011F4109802C04AEA40834FB740684FBF4A
S1130090089502994CC0E1E4F0E04081EF5FFF4F26
S11300A05081E150F040842F952F8551910B84317C
S11300B09107C0F4A0E4B0E06C916A3A41F445E5DC
S11300C04C9348E250E041935083109A0895833151
S11300D09107B1F0653541F5119310834AEA4C93C9
S11300E010980895483C510758F0A0E4B0E04C91B2
S11300F04535D1F4119310834AEA4C9310981FC0EC
S1130100452B91F44DB55EB541605EBD4DBDE1E456
S1130110F0E04081EF5FFF4F5081E150F0404F5FCE
S11301205F4F4193508308954AB7417F0BC0029BB0
S11301300EC046E851E041505040E9F700C04AB7CC
S1130140417F44604ABF4AB741604ABF88950895D9
S11301501F930F930FB70F9310E04F935F93EF9399
S1130160FF93E1E4F0E04081EF5FFF4F5081E15005
S1130170F0404F5F5F4F41935083FF91EF915F9148
S11301804F910F910FBF0F911F91189554DF81DF8D
S1090190FECFF894FFCF3E
S9030000FC
