:1000000009C091C017C016C015C0C3C013C012C02C
:1000100011C010C011271FBFCFE5D0E0DEBFCDBF9C
:1000200020E0A0E4B0E001C01D93A634B207E1F7E0
:10003000D5D0D7C0E5CF4FB74F774FBF17BF48EDEB
:100040004CBF16BF41E043BB15BBA09A68E070E00F
:100050007EBD6DBD19BD18BD60E573EC77BD66BD95
:1000600052E05BBD41B944E043B942B94FB7406883
:100070004FBF4AB7417F44604ABF4AB741604ABF59
:1000800088950895A4E4B0E04C91AF5FBF4F5C91B8
:10009000A150B040493C5107D0F44451510B453177
:1000A0005107B0F4E0E4F0E0408141130DC0109A34
:1000B00041E040831D931C93E2E4F0E01193108330
:1000C000E1E4F0E010830895413011F41083B3CFE0
:1000D000A2E4B0E04C91AF5FBF4F5C91A150B04043
:1000E0004C335107C0F0019916C0E1E4F0E04081C3
:1000F000423088F44FB74F774FBF1098109A1D9336
:100100001C9340814F5F40834FB740684FBF408191
:10011000423041F4DCCF029B05C0E0E4F0E04081D6
:100120004423A9F208951F930F930FB70F9310E084
:100130004F935F93EF93FF93E4E4F0E01193108308
:1001400045B3411316C042E045BB19BD18BD4DB5BE
:100150005EB5487F5EBD4DBD4DB55EB542605EBDCE
:100160004DBDE2E4F0E011931083E0E4F0E0108391
:1001700007C045B3423021F441E0E0E4F0E04083C1
:10018000FF91EF915F914F910F910FBF0F911F91D1
:1001900018951F930F930FB70F9310E04F935F9332
:1001A000EF93FF93029903C0E4E4F0E004C00199E7
:1001B0000CC0E2E4F0E04081EF5FFF4F5081E1507E
:1001C000F0404F5F5F4F41935083FF91EF915F91FC
:1001D0004F910F910FBF0F911F9118952CDF52DF98
:0601E000FECFF894FFCFF2
:00000001FF
