:1000000009C07FC017C016C015C0B5C013C012C04C
:1000100011C010C011271FBFCFE5D0E0DEBFCDBF9C
:1000200020E0A0E4B0E001C01D93A634B207E1F7E0
:10003000C9D0CBC0E5CF41E043BB15BBA09A4FB7B9
:1000400040684FBF48E050E05EBD4DBD19BD18BDD2
:1000500040E553EC57BD46BD42E04BBD48E041B9D9
:100060001398109A129A44E04ABF4AB741604ABFB7
:100070008895089500990BC0E2E4F0E04081EF5FBD
:10008000FF4F5081E150F040493C510708F0D3CF79
:100090004451510B45315107A0F4E5E4F0E04081B3
:1000A00041130AC0139A41E04083E0E4F0E0119369
:1000B0001083E4E4F0E003C0413019F41398108396
:1000C0000895A0E4B0E04C91AF5FBF4F5C91A150A8
:1000D000B0404C335107D9F60199D9CFE4E4F0E0B0
:1000E00040814230A0F64FB74F774FBF1398139A15
:1000F0001D931C9340814F5F40834FB740684FBFB3
:1001000008951F930F930FB70F9310E04F935F93D2
:10011000EF93FF9345B341131AC042E045BB19BDAD
:1001200018BD4DB55EB5487F5EBD4DBD4DB55EB5E4
:1001300042605EBD4DBDE2E4F0E011931083E0E467
:10014000F0E011931083E5E4F0E010830BC045B3B9
:10015000423041F4E2E4F0E01193108341E0E5E441
:10016000F0E04083FF91EF915F914F910F910FBFAE
:100170000F911F9118951F930F930FB70F9310E0D6
:100180004F935F93EF93FF93029903C0E2E4F0E093
:1001900006C0029B0EC001990CC0E0E4F0E0408173
:1001A000EF5FFF4F5081E150F0404F5F5F4F419351
:1001B0005083FF91EF915F914F910F910FBF0F917E
:0E01C0001F91189538DF56DFFECFF894FFCF61
:00000001FF
