:1000000009C08FC017C016C015C0C1C013C012C030
:1000100011C010C011271FBFCFE5D0E0DEBFCDBF9C
:1000200020E0A0E4B0E001C01D93A634B207E1F7E0
:10003000D3D0D5C0E5CF4FB74F774FBF17BF48EDEF
:100040004CBF16BF41E043BB15BBA09A68E070E00F
:100050007EBD6DBD19BD18BD60E573EC77BD66BD95
:1000600052E05BBD41B944E043B942B94FB7406883
:100070004FBF4AB7417F44604ABF4AB741604ABF59
:1000800088950895E4E4F0E04081EF5FFF4F5081F0
:10009000E150F040493C5107C0F44451510B453107
:1000A0005107A0F4E0E4F0E0408141130BC0109A46
:1000B00041E04083E2E4F0E011931083E1E4F0E0FA
:1000C00010830895413011F41083B5CFA2E4B0E05D
:1000D0004C91AF5FBF4F5C91A150B0404C33510782
:1000E000C0F0019916C0E1E4F0E04081423088F4AC
:1000F0004FB74F774FBF1098109A1D931C934081B4
:100100004F5F40834FB740684FBF4081423041F45A
:10011000DCCF029B05C0E0E4F0E040814423A9F27B
:1001200008951F930F930FB70F9310E04F935F93B2
:10013000EF93FF93E4E4F0E01193108345B3411390
:1001400016C042E045BB19BD18BD4DB55EB5487F30
:100150005EBD4DBD4DB55EB542605EBD4DBDE2E4D8
:10016000F0E011931083E0E4F0E0108307C045B3A2
:10017000423021F441E0E0E4F0E04083FF91EF9170
:100180005F914F910F910FBF0F911F9118951F9382
:100190000F930FB70F9310E04F935F93EF93FF937D
:1001A000029903C0E4E4F0E004C001990CC0E2E469
:1001B000F0E04081EF5FFF4F5081E150F0404F5F32
:1001C0005F4F41935083FF91EF915F914F910F915A
:1001D0000FBF0F911F9118952EDF54DFFECFF894BB
:0201E000FFCF4F
:00000001FF
