S0140000415474696E793420636F64652E73726563C8
S113000009C084C017C016C015C0BAC013C012C03E
S113001011C010C011271FBFCFE5D0E0DEBFCDBF98
S113002020E0A0E4B0E001C01D93A634B207E1F7DC
S1130030CCD0CEC0E5CF4FB74F774FBF17BF48EDF9
S11300404CBF16BF51E053BB15BBA09A4FB74068D5
S11300504FBF68E070E07EBD6DBD19BD18BD60E5A1
S113006073EC77BD66BD42E04BBD51B944E043B982
S113007010984ABF4AB741604ABF88950895E4E49E
S1130080F0E04081EF5FFF4F5081E150F040493C88
S11300905107C0F44451510B45315107A0F4E0E439
S11300A0F0E0408141130BC0109A41E04083E2E448
S11300B0F0E011931083E1E4F0E0108308954130FF
S11300C011F41083B8CFA2E4B0E04C91AF5FBF4FFE
S11300D05C91A150B0404C335107B8F0019915C060
S11300E0E1E4F0E04081423080F44FB74F774FBFF6
S11300F01098109A1D931C9340814F5F40834FB713
S113010040684FBF40814230E9F208951F930F9336
S11301100FB70F9310E04F935F93EF93FF9345B3A3
S113012041131AC042E045BB19BD18BD4DB55EB5BB
S1130130487F5EBD4DBD4DB55EB542605EBD4DBDF3
S1130140E4E4F0E011931083E2E4F0E0119310830F
S1130150E0E4F0E010830BC045B3423041F4E4E442
S1130160F0E01193108341E0E0E4F0E04083FF917C
S1130170EF915F914F910F910FBF0F911F911895C0
S11301801F930F930FB70F9310E04F935F93EF9369
S1130190FF93029903C0E4E4F0E004C001990CC0A9
S11301A0E2E4F0E04081EF5FFF4F5081E150F04026
S11301B04F5F5F4F41935083FF91EF915F914F9158
S11301C00F910FBF0F911F91189535DF58DFFECFA8
S10701D0F894FFCFCD
S9030000FC
