:1000000009C018C017C016C015C091C013C012C0D7
:1000100011C010C011271FBFCFE5D0E0DEBFCDBF9C
:1000200020E0A0E4B0E001C01D93A234B207E1F7E4
:100030009CD09EC0E5CFE2E4F0E04081453519F464
:1000400041E042B906C04A3A11F412B902C04AEA84
:10005000408341E041B944E043B917BF48ED4CBF8C
:1000600048E046BF48E050E05EBD4DBD19BD18BD3B
:100070004BE156E057BD46BD42E04BBD4FB740682F
:100080004FBF089502993DC0E0E4F0E04081EF5F8A
:10009000FF4F5081E150F040642F752F6551710B77
:1000A0006331710780F4A2E4B0E04C914A3A41F424
:1000B00045E54C9348E250E041935083109A0895EF
:1000C0004535E1F403C0483C510730F04AEAE2E428
:1000D000F0E0408310981DC0452B81F44DB55EB50E
:1000E00041605EBD4DBD4081EF5FFF4F5081E150EB
:1000F000F0404F5F5F4F4193508308954AB7417F6F
:1001000010C0029B13C046E851E041505040E9F74F
:1001100000C01EBD1DBD4FB74F774FBF4AB7417FCF
:1001200044604ABF4AB741604ABF889508951F930B
:100130000F930FB70F9310E04F935F93EF93FF93DD
:10014000E0E4F0E04081EF5FFF4F5081E150F0408C
:100150004F5F5F4F41935083FF91EF915F914F91BC
:100160000F910FBF0F911F91189565DF8BDFFECFA9
:04017000F894FFCF31
:00000001FF
