:1000000009C09AC017C016C015C0C4C013C012C022
:1000100011C010C011271FBFCFE5D0E0DEBFCDBF9C
:1000200020E0A0E4B0E001C01D93A634B207E1F7E0
:10003000D6D0D8C0E5CF4FB74F774FBF17BF48EDE9
:100040004CBF16BF41E041B946E043B912B9029B2B
:10005000FECF41E043BB15BBA09A48E050E05EBD37
:100060004DBD19BD18BD40E553EC57BD46BD42E03E
:100070004BBD4FB740684FBF44E04ABF4AB74160ED
:100080004ABF0895E4E4F0E04081EF5FFF4F508104
:10009000E150F040493C510720F04FB74F774FBF38
:1000A00037C04451510B44315107D0F4A0E4B0E0C3
:1000B0004C9141130FC0109A41E04C9348E250E03C
:1000C00041935083E2E4F0E011931083E1E4F0E027
:1000D00010830895413021F41C931193108318C0AC
:1000E000A2E4B0E04C91AF5FBF4F5C91A150B04033
:1000F0004C335107C8F0019917C0E1E4F0E04081AA
:10010000433090F44FB74F774FBF4081423009F4EE
:1001100092CF1098109A1D931C9340814F5F40839B
:100120004FB740684FBF0895029B05C0E0E4F0E080
:100130004081442369F308951F930F930FB70F93E2
:1001400010E04F935F93EF93FF93E4E4F0E011939B
:10015000108319BD18BD45B341130CC042E045BB27
:100160004DB55EB542605EBD4DBDE2E4F0E0119379
:10017000108307C045B3423021F441E0E0E4F0E0F1
:100180004083FF91EF915F914F910F910FBF0F91BE
:100190001F9118951F930F930FB70F9310E04F9374
:1001A0005F93EF93FF93029903C0E4E4F0E004C08F
:1001B00001990CC0E2E4F0E04081EF5FFF4F508115
:1001C000E150F0404F5F5F4F41935083FF91EF91BB
:1001D0005F914F910F910FBF0F911F9118952BDFDA
:0801E00051DFFECFF894FFCFC0
:00000001FF
